{
  "_format": "hh-sol-artifact-1",
  "contractName": "ownereship",
  "sourceName": "contracts/mytoken.sol",
  "abi": [
    {
      "inputs": [],
      "stateMutability": "nonpayable",
      "type": "constructor"
    },
    {
      "anonymous": false,
      "inputs": [
        {
          "indexed": true,
          "internalType": "address",
          "name": "_form",
          "type": "address"
        },
        {
          "indexed": true,
          "internalType": "address",
          "name": "_to",
          "type": "address"
        }
      ],
      "name": "transferoweneship",
      "type": "event"
    },
    {
      "inputs": [],
      "name": "acceptOwner",
      "outputs": [],
      "stateMutability": "nonpayable",
      "type": "function"
    },
    {
      "inputs": [
        {
          "internalType": "address",
          "name": "_to",
          "type": "address"
        }
      ],
      "name": "changeOwner",
      "outputs": [],
      "stateMutability": "nonpayable",
      "type": "function"
    },
    {
      "inputs": [],
      "name": "contractowner",
      "outputs": [
        {
          "internalType": "address",
          "name": "",
          "type": "address"
        }
      ],
      "stateMutability": "view",
      "type": "function"
    },
    {
      "inputs": [],
      "name": "newowner",
      "outputs": [
        {
          "internalType": "address",
          "name": "",
          "type": "address"
        }
      ],
      "stateMutability": "view",
      "type": "function"
    }
  ],
  "bytecode": "0x608060405234801561001057600080fd5b50336000806101000a81548173ffffffffffffffffffffffffffffffffffffffff021916908373ffffffffffffffffffffffffffffffffffffffff1602179055506105ec806100606000396000f3fe608060405234801561001057600080fd5b506004361061004c5760003560e01c80636098c94c14610051578063a6f9dae11461006f578063d74afaa11461008b578063ebbc4965146100a9575b600080fd5b6100596100b3565b60405161006691906103e2565b60405180910390f35b6100896004803603810190610084919061042e565b6100d7565b005b6100936101a9565b6040516100a091906103e2565b60405180910390f35b6100b16101cf565b005b60008054906101000a900473ffffffffffffffffffffffffffffffffffffffff1681565b60008054906101000a900473ffffffffffffffffffffffffffffffffffffffff1673ffffffffffffffffffffffffffffffffffffffff163373ffffffffffffffffffffffffffffffffffffffff1614610165576040517f08c379a000000000000000000000000000000000000000000000000000000000815260040161015c906104de565b60405180910390fd5b80600160006101000a81548173ffffffffffffffffffffffffffffffffffffffff021916908373ffffffffffffffffffffffffffffffffffffffff16021790555050565b600160009054906101000a900473ffffffffffffffffffffffffffffffffffffffff1681565b600160009054906101000a900473ffffffffffffffffffffffffffffffffffffffff1673ffffffffffffffffffffffffffffffffffffffff163373ffffffffffffffffffffffffffffffffffffffff161461025f576040517f08c379a000000000000000000000000000000000000000000000000000000000815260040161025690610596565b60405180910390fd5b600160009054906101000a900473ffffffffffffffffffffffffffffffffffffffff166000806101000a81548173ffffffffffffffffffffffffffffffffffffffff021916908373ffffffffffffffffffffffffffffffffffffffff160217905550600160009054906101000a900473ffffffffffffffffffffffffffffffffffffffff1673ffffffffffffffffffffffffffffffffffffffff1660008054906101000a900473ffffffffffffffffffffffffffffffffffffffff1673ffffffffffffffffffffffffffffffffffffffff167f2ec958668787864cd153bc302c97b2a48d0fc5d5ae42bb033bcee92a72cb5dfb60405160405180910390a36000600160006101000a81548173ffffffffffffffffffffffffffffffffffffffff021916908373ffffffffffffffffffffffffffffffffffffffff160217905550565b600073ffffffffffffffffffffffffffffffffffffffff82169050919050565b60006103cc826103a1565b9050919050565b6103dc816103c1565b82525050565b60006020820190506103f760008301846103d3565b92915050565b600080fd5b61040b816103c1565b811461041657600080fd5b50565b60008135905061042881610402565b92915050565b600060208284031215610444576104436103fd565b5b600061045284828501610419565b91505092915050565b600082825260208201905092915050565b7f6f6e6c79206f776e6572206f662074686520636f6e747261637420616e20636860008201527f616e676520746865206f776e6572000000000000000000000000000000000000602082015250565b60006104c8602e8361045b565b91506104d38261046c565b604082019050919050565b600060208201905081810360008301526104f7816104bb565b9050919050565b7f6f6e6c792074686520656c6563746564206f776e65722077696c6c206861766560008201527f2061207065726d697373696f6e20746f2067657420746865206f776e6572736860208201527f6970000000000000000000000000000000000000000000000000000000000000604082015250565b600061058060428361045b565b915061058b826104fe565b606082019050919050565b600060208201905081810360008301526105af81610573565b905091905056fea2646970667358221220024dff013c867c19167dbe1da5db070b260b2a257de5f60b4759aed5b8b7962164736f6c63430008110033",
  "linkReferences": {},
  "deployedLinkReferences": {}
}